{
  "address": "0xE70E515B887401D13D53167159AaE3D442de2459",
  "abi": [
    {
      "inputs": [
        {
          "internalType": "address",
          "name": "_wIron",
          "type": "address"
        },
        {
          "internalType": "contract UserUltraVerifier",
          "name": "_userProofVerifier",
          "type": "address"
        },
        {
          "internalType": "contract RelayUltraVerifier",
          "name": "_relayProofVerifier",
          "type": "address"
        },
        {
          "internalType": "uint256",
          "name": "_wIronPrice",
          "type": "uint256"
        },
        {
          "internalType": "uint8",
          "name": "_wIronPriceDecimals",
          "type": "uint8"
        },
        {
          "internalType": "uint8",
          "name": "_wIronDecimals",
          "type": "uint8"
        }
      ],
      "stateMutability": "nonpayable",
      "type": "constructor"
    },
    {
      "anonymous": false,
      "inputs": [
        {
          "indexed": true,
          "internalType": "address",
          "name": "previousOwner",
          "type": "address"
        },
        {
          "indexed": true,
          "internalType": "address",
          "name": "newOwner",
          "type": "address"
        }
      ],
      "name": "OwnershipTransferred",
      "type": "event"
    },
    {
      "inputs": [
        {
          "internalType": "address",
          "name": "priceFeed",
          "type": "address"
        },
        {
          "internalType": "uint8",
          "name": "assetDecimals",
          "type": "uint8"
        },
        {
          "internalType": "uint8",
          "name": "priceFeedDecimals",
          "type": "uint8"
        },
        {
          "internalType": "address",
          "name": "tokenAddress",
          "type": "address"
        }
      ],
      "name": "addSupportedAsset",
      "outputs": [],
      "stateMutability": "nonpayable",
      "type": "function"
    },
    {
      "inputs": [
        {
          "internalType": "address",
          "name": "",
          "type": "address"
        }
      ],
      "name": "assets",
      "outputs": [
        {
          "internalType": "address",
          "name": "priceFeed",
          "type": "address"
        },
        {
          "internalType": "uint8",
          "name": "assetDecimals",
          "type": "uint8"
        },
        {
          "internalType": "uint8",
          "name": "priceFeedDecimals",
          "type": "uint8"
        },
        {
          "internalType": "uint256",
          "name": "supply",
          "type": "uint256"
        },
        {
          "internalType": "bool",
          "name": "allowed",
          "type": "bool"
        }
      ],
      "stateMutability": "view",
      "type": "function"
    },
    {
      "inputs": [
        {
          "internalType": "address",
          "name": "token",
          "type": "address"
        },
        {
          "internalType": "uint256",
          "name": "_amount",
          "type": "uint256"
        }
      ],
      "name": "deposit",
      "outputs": [],
      "stateMutability": "payable",
      "type": "function"
    },
    {
      "inputs": [],
      "name": "ironDecimals",
      "outputs": [
        {
          "internalType": "uint8",
          "name": "",
          "type": "uint8"
        }
      ],
      "stateMutability": "view",
      "type": "function"
    },
    {
      "inputs": [],
      "name": "ironPrice",
      "outputs": [
        {
          "internalType": "uint256",
          "name": "",
          "type": "uint256"
        }
      ],
      "stateMutability": "view",
      "type": "function"
    },
    {
      "inputs": [],
      "name": "ironPriceDecimals",
      "outputs": [
        {
          "internalType": "uint8",
          "name": "",
          "type": "uint8"
        }
      ],
      "stateMutability": "view",
      "type": "function"
    },
    {
      "inputs": [],
      "name": "nativeETHSupply",
      "outputs": [
        {
          "internalType": "uint256",
          "name": "",
          "type": "uint256"
        }
      ],
      "stateMutability": "view",
      "type": "function"
    },
    {
      "inputs": [],
      "name": "owner",
      "outputs": [
        {
          "internalType": "address",
          "name": "",
          "type": "address"
        }
      ],
      "stateMutability": "view",
      "type": "function"
    },
    {
      "inputs": [
        {
          "internalType": "bytes",
          "name": "userProof",
          "type": "bytes"
        },
        {
          "internalType": "bytes32[]",
          "name": "userPublicInputs",
          "type": "bytes32[]"
        },
        {
          "internalType": "bytes",
          "name": "relayProof",
          "type": "bytes"
        },
        {
          "internalType": "bytes32[]",
          "name": "relayPublicInputs",
          "type": "bytes32[]"
        },
        {
          "internalType": "uint256",
          "name": "amountToSpend",
          "type": "uint256"
        },
        {
          "internalType": "address",
          "name": "transferAsset",
          "type": "address"
        },
        {
          "internalType": "address payable",
          "name": "to",
          "type": "address"
        }
      ],
      "name": "relay",
      "outputs": [],
      "stateMutability": "nonpayable",
      "type": "function"
    },
    {
      "inputs": [
        {
          "internalType": "bytes",
          "name": "userProof",
          "type": "bytes"
        },
        {
          "internalType": "bytes32[]",
          "name": "userPublicInputs",
          "type": "bytes32[]"
        },
        {
          "internalType": "bytes",
          "name": "relayProof",
          "type": "bytes"
        },
        {
          "internalType": "bytes32[]",
          "name": "relayPublicInputs",
          "type": "bytes32[]"
        },
        {
          "internalType": "uint256",
          "name": "amountToSpend",
          "type": "uint256"
        },
        {
          "internalType": "address payable",
          "name": "to",
          "type": "address"
        }
      ],
      "name": "relayEth",
      "outputs": [],
      "stateMutability": "nonpayable",
      "type": "function"
    },
    {
      "inputs": [],
      "name": "renounceOwnership",
      "outputs": [],
      "stateMutability": "nonpayable",
      "type": "function"
    },
    {
      "inputs": [
        {
          "internalType": "address",
          "name": "newOwner",
          "type": "address"
        }
      ],
      "name": "transferOwnership",
      "outputs": [],
      "stateMutability": "nonpayable",
      "type": "function"
    },
    {
      "inputs": [],
      "name": "wIRONSupply",
      "outputs": [
        {
          "internalType": "uint256",
          "name": "",
          "type": "uint256"
        }
      ],
      "stateMutability": "view",
      "type": "function"
    },
    {
      "inputs": [],
      "name": "wIron",
      "outputs": [
        {
          "internalType": "address",
          "name": "",
          "type": "address"
        }
      ],
      "stateMutability": "view",
      "type": "function"
    },
    {
      "stateMutability": "payable",
      "type": "receive"
    }
  ],
  "transactionHash": "0x408fb8730cae6d3ab2bbaa4a971c6aa79a8ebddba3abc0cfb46f623a704ebcc3",
  "args": [
    "0xAcc3C09A923E1FC2bEA39f38D07D0BC6485a92dc",
    "0x2D8c3Bfb3107302e839f546B14dDCC4eC8700d9a",
    "0x729fb6b0ae77f2E043F024e801970796516Eb2B0",
    28200,
    4,
    18
  ],
  "numDeployments": 2,
  "solcInputHash": "100d6d1bd645c3a1dc6ab2dd7cb0280a",
  "bytecode": "0x60806040523480156200001157600080fd5b50604051620017703803806200177083398101604081905262000034916200012e565b6200003f33620000ae565b600480546001600160a01b03199081166001600160a01b0398891617909155600180548216968816969096179095556002805490951693909516929092179092556005919091556006805460ff92831661ffff19909116176101009290931691909102919091179055620001af565b600080546001600160a01b038381166001600160a01b0319831681178455604051919092169283917f8be0079c531659141344cd1fd0a4f28419497f9722a3daafe3b4186f6b6457e09190a35050565b6001600160a01b03811681146200011457600080fd5b50565b805160ff811681146200012957600080fd5b919050565b60008060008060008060c087890312156200014857600080fd5b86516200015581620000fe565b60208801519096506200016881620000fe565b60408801519095506200017b81620000fe565b60608801519094509250620001936080880162000117565b9150620001a360a0880162000117565b90509295509295509295565b6115b180620001bf6000396000f3fe6080604052600436106100e15760003560e01c8063823b2d921161007f578063abf2f27711610059578063abf2f277146102df578063c34bb07b146102f5578063f11b81881461030f578063f2fde38b146103a557600080fd5b8063823b2d92146102875780638da5cb5b146102ab57806399ad5503146102c957600080fd5b80634f0187ce116100bb5780634f0187ce146101fa5780635659d6e91461021a578063584ef3211461023a578063715018a61461027257600080fd5b8063067a64851461019157806316b9c872146101c757806347e7ef24146101e757600080fd5b3661018c5734600860008282546100f89190610fc9565b90915550506004546001600160a01b031663a9059cbb3361011b34610578610fdc565b6040516001600160e01b031960e085901b1681526001600160a01b03909216600483015260248201526044016020604051808303816000875af1158015610166573d6000803e3d6000fd5b505050506040513d601f19601f8201168201806040525081019061018a9190610ff3565b005b600080fd5b34801561019d57600080fd5b506006546101b090610100900460ff1681565b60405160ff90911681526020015b60405180910390f35b3480156101d357600080fd5b5061018a6101e236600461104b565b6103c5565b61018a6101f53660046110a3565b610485565b34801561020657600080fd5b5061018a61021536600461115d565b610693565b34801561022657600080fd5b5061018a61023536600461123a565b6108b8565b34801561024657600080fd5b5060045461025a906001600160a01b031681565b6040516001600160a01b0390911681526020016101be565b34801561027e57600080fd5b5061018a610be9565b34801561029357600080fd5b5061029d60055481565b6040519081526020016101be565b3480156102b757600080fd5b506000546001600160a01b031661025a565b3480156102d557600080fd5b5061029d60035481565b3480156102eb57600080fd5b5061029d60085481565b34801561030157600080fd5b506006546101b09060ff1681565b34801561031b57600080fd5b5061036a61032a36600461132a565b6007602052600090815260409020805460018201546002909201546001600160a01b0382169260ff600160a01b8404811693600160a81b90048116921685565b604080516001600160a01b0396909616865260ff9485166020870152929093169184019190915260608301521515608082015260a0016101be565b3480156103b157600080fd5b5061018a6103c036600461132a565b610bfd565b6103cd610c76565b6001600160a01b0384166104185760405162461bcd60e51b815260206004820152600d60248201526c08525395905312510811915151609a1b60448201526064015b60405180910390fd5b6001600160a01b039081166000908152600760205260408120600281018054600160ff1990911681179091558154969093166001600160a81b031990961695909517600160a01b60ff958616021760ff60a81b1916600160a81b9390941692909202929092178355910155565b6001600160a01b03821660009081526007602052604090206002015460ff1615156001146104b5576104b5611347565b6040516323b872dd60e01b8152336004820152306024820152604481018290526001600160a01b038316906323b872dd906064016020604051808303816000875af1158015610508573d6000803e3d6000fd5b505050506040513d601f19601f8201168201806040525081019061052c9190610ff3565b506001600160a01b03821660009081526007602052604081206001810180549192849261055a908490610fc9565b909155506000905061056c8484610cd0565b6004805460405163a9059cbb60e01b81523392810192909252602482018390529192506001600160a01b039091169063a9059cbb906044016020604051808303816000875af11580156105c3573d6000803e3d6000fd5b505050506040513d601f19601f820116820180604052508101906105e79190610ff3565b5034600860008282546105fa9190610fc9565b90915550506004546001600160a01b031663a9059cbb3361061d34610578610fdc565b6040516001600160e01b031960e085901b1681526001600160a01b03909216600483015260248201526044016020604051808303816000875af1158015610668573d6000803e3d6000fd5b505050506040513d601f19601f8201168201806040525081019061068c9190610ff3565b5050505050565b61069b610c76565b600154604051633a94343960e21b81526001600160a01b039091169063ea50d0e4906106d1908d908d908d908d9060040161135d565b602060405180830381865afa1580156106ee573d6000803e3d6000fd5b505050506040513d601f19601f820116820180604052508101906107129190610ff3565b6107535760405162461bcd60e51b815260206004820152601260248201527124b73b30b634b2103ab9b2b910383937b7b360711b604482015260640161040f565b600254604051633a94343960e21b81526001600160a01b039091169063ea50d0e49061078990899089908990899060040161135d565b602060405180830381865afa1580156107a6573d6000803e3d6000fd5b505050506040513d601f19601f820116820180604052508101906107ca9190610ff3565b61080c5760405162461bcd60e51b815260206004820152601360248201527224b73b30b634b2103932b630bc90383937b7b360691b604482015260640161040f565b8184846021818110610820576108206113c1565b61083792602090910201359050633b9aca00610fdc565b146108755760405162461bcd60e51b815260206004820152600e60248201526d125b9d985b1a5908185b5bdd5b9d60921b604482015260640161040f565b6040516001600160a01b0382169083156108fc029084906000818181858888f193505050501580156108ab573d6000803e3d6000fd5b5050505050505050505050565b6108c0610c76565b600154604051633a94343960e21b81526001600160a01b039091169063ea50d0e4906108f6908e908e908e908e9060040161135d565b602060405180830381865afa158015610913573d6000803e3d6000fd5b505050506040513d601f19601f820116820180604052508101906109379190610ff3565b6109785760405162461bcd60e51b815260206004820152601260248201527124b73b30b634b2103ab9b2b910383937b7b360711b604482015260640161040f565b600254604051633a94343960e21b81526001600160a01b039091169063ea50d0e4906109ae908a908a908a908a9060040161135d565b602060405180830381865afa1580156109cb573d6000803e3d6000fd5b505050506040513d601f19601f820116820180604052508101906109ef9190610ff3565b610a315760405162461bcd60e51b815260206004820152601360248201527224b73b30b634b2103932b630bc90383937b7b360691b604482015260640161040f565b6001600160a01b038216610a4457600080fd5b6001600160a01b03808316600090815260076020908152604091829020825160a0810184528154948516815260ff600160a01b86048116938201849052600160a81b90950485169381019390935260018101546060840152600201549092161515608082015290610ab690600a6114bb565b610ac090856114ca565b633b9aca0087876021818110610ad857610ad86113c1565b9050602002013560001c610aec91906114ca565b14610b2a5760405162461bcd60e51b815260206004820152600e60248201526d125b9d985b1a5908185b5bdd5b9d60921b604482015260640161040f565b60405163a9059cbb60e01b81526001600160a01b0383811660048301526024820186905284169063a9059cbb906044016020604051808303816000875af1158015610b79573d6000803e3d6000fd5b505050506040513d601f19601f82011682018060405250810190610b9d9190610ff3565b610bdb5760405162461bcd60e51b815260206004820152600f60248201526e151c985b9cd9995c8819985a5b1959608a1b604482015260640161040f565b505050505050505050505050565b610bf1610c76565b610bfb6000610ef0565b565b610c05610c76565b6001600160a01b038116610c6a5760405162461bcd60e51b815260206004820152602660248201527f4f776e61626c653a206e6577206f776e657220697320746865207a65726f206160448201526564647265737360d01b606482015260840161040f565b610c7381610ef0565b50565b6000546001600160a01b03163314610bfb5760405162461bcd60e51b815260206004820181905260248201527f4f776e61626c653a2063616c6c6572206973206e6f7420746865206f776e6572604482015260640161040f565b6001600160a01b03828116600090815260076020526040812054909116610d2f5760405162461bcd60e51b815260206004820152601360248201527221494e56414c49442866726f6d41737365742960681b604482015260640161040f565b81600003610d3f57506000610eea565b6001600160a01b03808416600090815260076020526040808220548151633fabe5a360e21b815291519293849391169163feaf968c9160048083019260a09291908290030181865afa158015610d99573d6000803e3d6000fd5b505050506040513d601f19601f82011682018060405250810190610dbd9190611506565b506005546006546001600160a01b038b1660009081526007602052604090205494975091955086945092600160a81b900460ff9081169116149050610eab57600654610e1690829060ff80821691610100900416610f40565b6001600160a01b038816600090815260076020526040902054600654610e5191859160ff600160a81b90920482169161010090910416610f40565b6001600160a01b038916600090815260076020526040902054600654610e8c918a9160ff600160a01b90920482169161010090910416610f40565b610e969190610fdc565b610ea091906114ca565b945050505050610eea565b6001600160a01b03871660009081526007602052604090205460065482918491610e8c918a9160ff600160a01b90920482169161010090910416610f40565b92915050565b600080546001600160a01b038381166001600160a01b0319831681178455604051919092169283917f8be0079c531659141344cd1fd0a4f28419497f9722a3daafe3b4186f6b6457e09190a35050565b60008160ff168360ff161015610f7957610f5a8383611556565b610f689060ff16600a61156f565b610f729085610fdc565b9050610fac565b8160ff168360ff161115610fa957610f918284611556565b610f9f9060ff16600a61156f565b610f7290856114ca565b50825b9392505050565b634e487b7160e01b600052601160045260246000fd5b80820180821115610eea57610eea610fb3565b8082028115828204841417610eea57610eea610fb3565b60006020828403121561100557600080fd5b81518015158114610fac57600080fd5b6001600160a01b0381168114610c7357600080fd5b803561103581611015565b919050565b803560ff8116811461103557600080fd5b6000806000806080858703121561106157600080fd5b843561106c81611015565b935061107a6020860161103a565b92506110886040860161103a565b9150606085013561109881611015565b939692955090935050565b600080604083850312156110b657600080fd5b82356110c181611015565b946020939093013593505050565b60008083601f8401126110e157600080fd5b50813567ffffffffffffffff8111156110f957600080fd5b60208301915083602082850101111561111157600080fd5b9250929050565b60008083601f84011261112a57600080fd5b50813567ffffffffffffffff81111561114257600080fd5b6020830191508360208260051b850101111561111157600080fd5b60008060008060008060008060008060c08b8d03121561117c57600080fd5b8a3567ffffffffffffffff8082111561119457600080fd5b6111a08e838f016110cf565b909c509a5060208d01359150808211156111b957600080fd5b6111c58e838f01611118565b909a50985060408d01359150808211156111de57600080fd5b6111ea8e838f016110cf565b909850965060608d013591508082111561120357600080fd5b506112108d828e01611118565b90955093505060808b0135915061122960a08c0161102a565b90509295989b9194979a5092959850565b600080600080600080600080600080600060e08c8e03121561125b57600080fd5b67ffffffffffffffff808d35111561127257600080fd5b61127f8e8e358f016110cf565b909c509a5060208d013581101561129557600080fd5b6112a58e60208f01358f01611118565b909a50985060408d01358110156112bb57600080fd5b6112cb8e60408f01358f016110cf565b909850965060608d01358110156112e157600080fd5b506112f28d60608e01358e01611118565b909550935060808c0135925061130a60a08d0161102a565b915061131860c08d0161102a565b90509295989b509295989b9093969950565b60006020828403121561133c57600080fd5b8135610fac81611015565b634e487b7160e01b600052600160045260246000fd5b6040815283604082015283856060830137600060608583018101829052601f19601f8701168301838103820160208501529081018490526001600160fb1b038411156113a857600080fd5b8360051b80866080840137016080019695505050505050565b634e487b7160e01b600052603260045260246000fd5b600181815b808511156114125781600019048211156113f8576113f8610fb3565b8085161561140557918102915b93841c93908002906113dc565b509250929050565b60008261142957506001610eea565b8161143657506000610eea565b816001811461144c576002811461145657611472565b6001915050610eea565b60ff84111561146757611467610fb3565b50506001821b610eea565b5060208310610133831016604e8410600b8410161715611495575081810a610eea565b61149f83836113d7565b80600019048211156114b3576114b3610fb3565b029392505050565b6000610fac60ff84168361141a565b6000826114e757634e487b7160e01b600052601260045260246000fd5b500490565b805169ffffffffffffffffffff8116811461103557600080fd5b600080600080600060a0868803121561151e57600080fd5b611527866114ec565b945060208601519350604086015192506060860151915061154a608087016114ec565b90509295509295909350565b60ff8281168282160390811115610eea57610eea610fb3565b6000610fac838361141a56fea2646970667358221220d0f7d490f8cba7592ba2fa30c7490d2e6c2224c77afdb869d2f0e234e752935264736f6c63430008110033",
  "devdoc": {
    "kind": "dev",
    "methods": {
      "owner()": {
        "details": "Returns the address of the current owner."
      },
      "renounceOwnership()": {
        "details": "Leaves the contract without owner. It will not be possible to call `onlyOwner` functions anymore. Can only be called by the current owner. NOTE: Renouncing ownership will leave the contract without an owner, thereby removing any functionality that is only available to the owner."
      },
      "transferOwnership(address)": {
        "details": "Transfers ownership of the contract to a new account (`newOwner`). Can only be called by the current owner."
      }
    },
    "version": 1
  },
  "userdoc": {
    "kind": "user",
    "methods": {},
    "version": 1
  },
  "storageLayout": {
    "storage": [
      {
        "astId": 53,
        "contract": "contracts/RelayVault.sol:RelayVault",
        "label": "_owner",
        "offset": 0,
        "slot": "0",
        "type": "t_address"
      },
      {
        "astId": 272,
        "contract": "contracts/RelayVault.sol:RelayVault",
        "label": "userVerifier",
        "offset": 0,
        "slot": "1",
        "type": "t_contract(UserUltraVerifier)2466"
      },
      {
        "astId": 275,
        "contract": "contracts/RelayVault.sol:RelayVault",
        "label": "relayVerifier",
        "offset": 0,
        "slot": "2",
        "type": "t_contract(RelayUltraVerifier)1642"
      },
      {
        "astId": 277,
        "contract": "contracts/RelayVault.sol:RelayVault",
        "label": "wIRONSupply",
        "offset": 0,
        "slot": "3",
        "type": "t_uint256"
      },
      {
        "astId": 279,
        "contract": "contracts/RelayVault.sol:RelayVault",
        "label": "wIron",
        "offset": 0,
        "slot": "4",
        "type": "t_address"
      },
      {
        "astId": 281,
        "contract": "contracts/RelayVault.sol:RelayVault",
        "label": "ironPrice",
        "offset": 0,
        "slot": "5",
        "type": "t_uint256"
      },
      {
        "astId": 283,
        "contract": "contracts/RelayVault.sol:RelayVault",
        "label": "ironPriceDecimals",
        "offset": 0,
        "slot": "6",
        "type": "t_uint8"
      },
      {
        "astId": 285,
        "contract": "contracts/RelayVault.sol:RelayVault",
        "label": "ironDecimals",
        "offset": 1,
        "slot": "6",
        "type": "t_uint8"
      },
      {
        "astId": 301,
        "contract": "contracts/RelayVault.sol:RelayVault",
        "label": "assets",
        "offset": 0,
        "slot": "7",
        "type": "t_mapping(t_address,t_struct(Asset)296_storage)"
      },
      {
        "astId": 303,
        "contract": "contracts/RelayVault.sol:RelayVault",
        "label": "nativeETHSupply",
        "offset": 0,
        "slot": "8",
        "type": "t_uint256"
      }
    ],
    "types": {
      "t_address": {
        "encoding": "inplace",
        "label": "address",
        "numberOfBytes": "20"
      },
      "t_bool": {
        "encoding": "inplace",
        "label": "bool",
        "numberOfBytes": "1"
      },
      "t_contract(RelayUltraVerifier)1642": {
        "encoding": "inplace",
        "label": "contract RelayUltraVerifier",
        "numberOfBytes": "20"
      },
      "t_contract(UserUltraVerifier)2466": {
        "encoding": "inplace",
        "label": "contract UserUltraVerifier",
        "numberOfBytes": "20"
      },
      "t_mapping(t_address,t_struct(Asset)296_storage)": {
        "encoding": "mapping",
        "key": "t_address",
        "label": "mapping(address => struct RelayVault.Asset)",
        "numberOfBytes": "32",
        "value": "t_struct(Asset)296_storage"
      },
      "t_struct(Asset)296_storage": {
        "encoding": "inplace",
        "label": "struct RelayVault.Asset",
        "members": [
          {
            "astId": 287,
            "contract": "contracts/RelayVault.sol:RelayVault",
            "label": "priceFeed",
            "offset": 0,
            "slot": "0",
            "type": "t_address"
          },
          {
            "astId": 289,
            "contract": "contracts/RelayVault.sol:RelayVault",
            "label": "assetDecimals",
            "offset": 20,
            "slot": "0",
            "type": "t_uint8"
          },
          {
            "astId": 291,
            "contract": "contracts/RelayVault.sol:RelayVault",
            "label": "priceFeedDecimals",
            "offset": 21,
            "slot": "0",
            "type": "t_uint8"
          },
          {
            "astId": 293,
            "contract": "contracts/RelayVault.sol:RelayVault",
            "label": "supply",
            "offset": 0,
            "slot": "1",
            "type": "t_uint256"
          },
          {
            "astId": 295,
            "contract": "contracts/RelayVault.sol:RelayVault",
            "label": "allowed",
            "offset": 0,
            "slot": "2",
            "type": "t_bool"
          }
        ],
        "numberOfBytes": "96"
      },
      "t_uint256": {
        "encoding": "inplace",
        "label": "uint256",
        "numberOfBytes": "32"
      },
      "t_uint8": {
        "encoding": "inplace",
        "label": "uint8",
        "numberOfBytes": "1"
      }
    }
  }
}